:100000000C942A000C9447000C9447000C94470071
:100010000C9447000C9447000C9447000C94470044
:100020000C9447000C9447000C9447000C94470034
:100030000C9447000C94B7060C941D070C94EA0628
:100040000C9447000C9447000C9447000C94470014
:100050000C94470011241FBECFE5D8E0DEBFCDBF12
:1000600011E0A8E6B1E001C01D92AA37B107E1F79F
:1000700011E0A0E6B0E0E0E2F0E202C005900D92EF
:10008000A836B107D9F70E94950F0C940E100C9466
:100090000000EF92FF920F931F937B018C0120E0F1
:1000A00030E040E05FE40E94C50388238CF0C80183
:1000B000B70120E030E040E05FE40E94C1010E940F
:1000C000F5039B01AC01205030404040504806C031
:1000D000C801B7010E94F5039B01AC01B901CA0137
:1000E0001F910F91FF90EF900895A0E0B0E0EBE733
:1000F000F0E00C94D70FDC012B01FA019C919230B7
:1001000008F439C1EB018881823008F433C194309E
:1001100069F4843009F02FC111969C91119789815F
:10012000981709F428C1A0E6B0E025C1843009F48D
:1001300021C18230A9F4923009F01DC19A01AD01AC
:1001400088E0EA010990AE01E90109929E0181501F
:10015000C1F7E201898111969C918923818308C1AD
:10016000923009F407C112962D903C901397EB0141
:100170008A819B811496AD90BD90CD90DC901797AD
:10018000EC80FD800E811F819101281B390BB90184
:1001900037FF04C066277727621B730B6032710537
:1001A0000CF061C0121613066CF537014801062EDB
:1001B00004C096948794779467940A94D2F721E0C8
:1001C00030E040E050E004C0220F331F441F551FB1
:1001D0006A95D2F721503040404050402E213F21B7
:1001E00040235123211531054105510521F021E01E
:1001F00030E040E050E079018A01E628F72808293C
:1002000019293CC0232BD1F1260E371E350146019A
:10021000062E04C096948794779467940A94D2F734
:1002200021E030E040E050E004C0220F331F441FC3
:10023000551F6A95D2F721503040404050402A2146
:100240003B214C215D21211531054105510521F04E
:1002500021E030E040E050E059016A01A628B728CB
:10026000C828D9280BC0821593052CF01C01AA249C
:10027000BB24650103C0EE24FF24870111969C91E5
:10028000D20111968C91981709F445C0992339F041
:10029000A80197012A193B094C095D0906C0A6016E
:1002A00095012E193F09400B510B57FD08C01182D3
:1002B0003382228224833583468357831DC081E0A5
:1002C00081833382228288279927DC01821B930B4A
:1002D000A40BB50B84839583A683B7830DC0220F2F
:1002E000331F441F551F24833583468357838281E0
:1002F000938101979383828324813581468157813D
:10030000DA01C9010197A109B1098F5F9F4FAF4F72
:10031000BF4328F30BC0918333822282EA0CFB1C7B
:100320000C1D1D1DE482F5820683178383E0808304
:10033000248135814681578157FF1AC0C901AA27F8
:1003400097FDA095BA2F81709070A070B0705695EF
:10035000479537952795822B932BA42BB52B848318
:100360009583A683B7838281938101969383828349
:10037000DF0101C0D201CD01CDB7DEB7E2E10C94BF
:10038000F30FA0E2B0E0E7ECF1E00C94E30F698337
:100390007A838B839C832D833E834F835887E9E048
:1003A000EE2EF12CEC0EFD1ECE010196B7010E943F
:1003B000E6058E010F5E1F4FCE010596B8010E9423
:1003C000E6058A8991E089278A8BC701B801AE01C9
:1003D000475E5F4F0E9475000E941105A096E6E0FF
:1003E0000C94FF0FA0E2B0E0E8EFF1E00C94E30F13
:1003F00069837A838B839C832D833E834F835887C5
:10040000F9E0EF2EF12CEC0EFD1ECE010196B701A6
:100410000E94E6058E010F5E1F4FCE010596B801C2
:100420000E94E605C701B801AE01475E5F4F0E941A
:1004300075000E941105A096E6E00C94FF0FA0E263
:10044000B0E0E5E2F2E00C94D70F69837A838B8306
:100450009C832D833E834F835887CE010196BE0136
:10046000675F7F4F0E94E605CE010596BE016F5E75
:100470007F4F0E94E6059985923088F08989823005
:10048000C8F0943019F4823051F404C0843029F457
:10049000923081F480E690E0C6C0923049F420E0CA
:1004A0009A858A89981321E02A87CE010996BBC0D4
:1004B000823049F420E09A858A89981321E02A8BBA
:1004C000CE014196B0C02D843E844F8458886D88FB
:1004D0007E888F88988CEE24FF248701AA24BB2471
:1004E000650140E050E060E070E0E0E0F0E0C10174
:1004F00081709070892BE9F0E60CF71C081D191D1E
:100500009A01AB012A0D3B1D4C1D5D1D80E090E062
:10051000A0E0B0E0E614F7040805190520F481E036
:1005200090E0A0E0B0E0BA01A901480F591F6A1F8E
:100530007B1FAA0CBB1CCC1CDD1C97FE08C081E0F5
:1005400090E0A0E0B0E0A82AB92ACA2ADB2A3196B6
:10055000E032F10549F0660C771C881C991C569412
:10056000479437942794C3CFFA85EA892B893C892D
:100570008B859C85280F391F2E5F3F4F17C0CA01FE
:1005800081709070892B61F016950795F794E79428
:1005900080E090E0A0E0B0E8E82AF92A0A2B1B2BC3
:1005A00076956795579547952F5F3F4F77FDE7CF36
:1005B0000CC0440F551F661F771F17FD4160EE0CDE
:1005C000FF1C001F111F21503040403090E05907A0
:1005D00090E0690790E4790760F32B8F3C8FDB0193
:1005E000CA018F779070A070B07080349105A1051A
:1005F000B10561F447FD0AC0E114F10401051105DC
:1006000029F0405C5F4F6F4F7F4F40781A8EFE1786
:1006100011F081E08A8F4D8F5E8F6F8F78A383E01A
:10062000898FCE0149960E941105A096E2E10C94B3
:10063000F30FA8E1B0E0EFE1F3E00C94DF0F698382
:100640007A838B839C832D833E834F835887B9E0C5
:10065000EB2EF12CEC0EFD1ECE010196B7010E948F
:10066000E6058E010F5E1F4FCE010596B8010E9470
:10067000E6052985223008F47EC03989323010F42D
:10068000B8017CC08A859A8989278A87243011F02D
:10069000223031F4231709F06EC060E670E06EC0BE
:1006A000343039F41D861E861F86188A1C861B86E8
:1006B00004C0323021F484E08987B7015FC02B8504
:1006C0003C858B899C89281B390B3C872B87ED84C3
:1006D000FE840F851889AD88BE88CF88D88CEA142F
:1006E000FB040C051D0540F4EE0CFF1C001F111F40
:1006F000215030403C872B8720E030E040E050E044
:1007000080E090E0A0E0B0E460E070E0EA14FB0478
:100710000C051D0540F0282B392B4A2B5B2BEA18C2
:10072000FB080C091D09B695A79597958795EE0CC2
:10073000FF1C001F111F6F5F7F4F6F31710531F775
:10074000DA01C9018F779070A070B0708034910584
:10075000A105B10561F427FD0AC0E114F10401050A
:10076000110529F0205C3F4F4F4F5F4F20782D87B8
:100770003E874F87588BBE01675F7F4FCB010E943A
:1007800011056896EAE00C94FB0FA8E1B0E0EBECF1
:10079000F3E00C94E30F69837A838B839C832D832E
:1007A0003E834F83588789E0E82EF12CEC0EFD1E26
:1007B000CE010196B7010E94E6058E010F5E1F4F24
:1007C000CE010596B8010E94E6058985823040F089
:1007D0008989823028F0C701B8010E945E0601C0F5
:1007E0008FEF6896E6E00C94FF0FACE0B0E0EBEF23
:1007F000F3E00C94E70F69837A838B839C83CE01AB
:100800000196BE016B5F7F4F0E94E6058D818230AD
:1008100061F1823050F1843021F48E81882351F1CE
:100820002EC02F81388537FD20C06E812F313105D4
:100830001CF06623F9F023C08EE190E0821B930B3D
:1008400029853A854B855C8504C056954795379533
:1008500027958A95D2F76623B1F05095409530954B
:1008600021953F4F4F4F5F4F0EC020E030E040E0FA
:1008700050E009C02FEF3FEF4FEF5FE704C020E0EB
:1008800030E040E050E8B901CA012C96E2E00C9457
:100890000310A8E0B0E0EFE4F4E00C94DF0F7B017C
:1008A0008C01611571058105910519F482E0898338
:1008B00060C083E089838EE1C82ED12CDC82CB829C
:1008C000ED82FE820F831887C801B7010E94C2041F
:1008D000FC013197F7FF3BC0222733272E1B3F0B2C
:1008E00057016801022E04C0D694C794B794A79408
:1008F0000A94D2F740E050E060E070E081E090E0E0
:10090000A0E0B0E004C0880F991FAA1FBB1F2A9562
:10091000D2F70197A109B1098E219F21A023B1230C
:100920000097A105B10521F041E050E060E070E0E2
:100930004A295B296C297D294D835E836F837887E3
:100940008EE190E08E1B9F0B9C838B8312C03097AF
:1009500081F00E2E04C0EE0CFF1C001F111F0A9424
:10096000D2F7ED82FE820F831887CE1ADF0ADC826F
:10097000CB821A82CE0101960E9411052896EAE0E8
:100980000C94FB0FEF92FF920F931F937B018C014E
:1009900080E0E81680E0F80681E0080780E01807AC
:1009A00088F48FEFE816F1040105110531F028F005
:1009B00088E090E0A0E0B0E017C080E090E0A0E028
:1009C000B0E012C080E0E81680E0F80680E008079A
:1009D00081E0180728F088E190E0A0E0B0E004C0D2
:1009E00080E190E0A0E0B0E020E230E040E050E0C4
:1009F000281B390B4A0B5B0B04C016950795F7941F
:100A0000E7948A95D2F7F701E859FF4F8081281BB8
:100A1000310941095109C9011F910F91FF90EF90D0
:100A20000895DF92EF92FF920F931F93FC01E480F1
:100A3000F58006811781D1808081823048F480E082
:100A400090E0A0E1B0E0E82AF92A0A2B1B2BA5C010
:100A5000843009F49FC0823021F4EE24FF24870102
:100A600005C0E114F1040105110519F4E0E0F0E01E
:100A700096C0628173819FEF623879070CF05BC08A
:100A800022E83FEF261B370B2A3131052CF020E0FE
:100A900030E040E050E02AC0B801A701022E04C0B7
:100AA00076956795579547950A94D2F781E090E03F
:100AB000A0E0B0E004C0880F991FAA1FBB1F2A95B1
:100AC000D2F70197A109B1098E219F21A023B1235B
:100AD0000097A105B10521F081E090E0A0E0B0E031
:100AE0009A01AB01282B392B4A2B5B2BDA01C90168
:100AF0008F779070A070B07080349105A105B1051A
:100B000039F427FF09C0205C3F4F4F4F5F4F04C0AF
:100B1000215C3F4F4F4F5F4FE0E0F0E02030A0E01E
:100B20003A07A0E04A07A0E45A0710F0E1E0F0E03D
:100B300079018A0127C06038710564F5FB01E1582D
:100B4000FF4FD801C7018F779070A070B0708034CC
:100B50009105A105B10539F4E7FE0DC080E490E0F0
:100B6000A0E0B0E004C08FE390E0A0E0B0E0E80EC9
:100B7000F91E0A1F1B1F17FF05C016950795F7944E
:100B8000E794319687E016950795F794E7948A9550
:100B9000D1F705C0EE24FF248701EFEFF0E06E2FC0
:100BA000679566276795902F9F77D794DD24D79414
:100BB0008E2F8695492F462B582F5D29B701CA01E4
:100BC0001F910F91FF90EF90DF900895FC01DB01E2
:100BD000408151812281622F6F7770E0221F22278E
:100BE000221F9381892F880F822B282F30E0991F95
:100BF0009927991F11969C93119721153105A9F5F5
:100C0000411551056105710511F482E037C082E894
:100C10009FEF13969C938E9312979A01AB0167E016
:100C2000220F331F441F551F6A95D1F783E08C9321
:100C30000DC0220F331F441F551F12968D919C919A
:100C40001397019713969C938E931297203080E010
:100C5000380780E0480780E4580758F314962D932E
:100C60003D934D935C93179708952F3F310579F489
:100C7000411551056105710519F484E08C930895BF
:100C800064FF03C081E08C9312C01C9210C02F57E8
:100C9000304013963C932E93129783E08C9387E019
:100CA000440F551F661F771F8A95D1F770641496FD
:100CB0004D935D936D937C93179708951F93DC017B
:100CC000FB019C91923008F447C08081823008F487
:100CD00043C0943051F411961C91843099F5818170
:100CE000682F70E0611B71093FC0843021F09230A1
:100CF00031F48230B9F18181882389F12DC01196B8
:100D00001C9111978230F1F081811817D9F4129655
:100D10002D913C911397828193818217930794F0D0
:100D200028173907BCF014968D919D910D90BC91B8
:100D3000A02D2481358146815781281739074A071C
:100D40005B0718F4112341F00AC082179307A40728
:100D5000B50740F4112319F061E070E005C06FEFB2
:100D60007FEF02C060E070E0CB011F9108951F92F9
:100D70000F920FB60F9211242F933F934F935F93CF
:100D80006F937F938F939F93AF93BF93EF93FF9353
:100D9000DF93CF93CDB7DEB7809174019091750149
:100DA000009729F0E0917401F09175010995CF91B8
:100DB000DF91FF91EF91BF91AF919F918F917F91C3
:100DC0006F915F914F913F912F910F900FBE0F90B8
:100DD0001F9018951F920F920FB60F9211242F9308
:100DE0003F934F935F936F937F938F939F93AF93B3
:100DF000BF93EF93FF93DF93CF93CDB7DEB780918F
:100E0000760190917701009729F0E0917601F091B9
:100E100077010995CF91DF91FF91EF91BF91AF914C
:100E20009F918F917F916F915F914F913F912F9102
:100E30000F900FBE0F901F9018951F920F920FB634
:100E40000F9211242F933F934F935F936F937F9350
:100E50008F939F93AF93BF93EF93FF93DF93CF93C2
:100E6000CDB7DEB78091780190917901009729F094
:100E7000E0917801F09179010995CF91DF91FF918F
:100E8000EF91BF91AF919F918F917F916F915F9102
:100E90004F913F912F910F900FBE0F901F9018957B
:100EA0000F931F93DF93CF93CDB7DEB765970FB640
:100EB000F894DEBF0FBECDBF1F821E821D8280E070
:100EC00090E0A0E0B0E089839A83AB83BC838091FB
:100ED0006801282F30E03D8B2C8B8C899D898130D7
:100EE0009105A1F0EC89FD89E230F105B4F02C897F
:100EF0003D892230310531F08C899D8983309105FF
:100F000049F00BC08E8180618E8307C08E8188601E
:100F10008E8303C08E8188618E8380916901E82F62
:100F2000F0E0FB8BEA8B2A893B8921303105E1F126
:100F30008A899B898230910509F46AC0EA89FB8914
:100F4000309709F0A6C080916F0190917001A09137
:100F50007101B0917201BC01CD010E944904DC0114
:100F6000CB01BC01CD0120E030E040E851E40E941B
:100F70001F02DC01CB019C01AD0160E074E284E75B
:100F800099E40E941903DC01CB01BC01CD0120E0F2
:100F900030E040E05FE30E94C101DC01CB018983C6
:100FA0009A83AB83BC8375C08F8182608F8380916D
:100FB0006F0190917001A0917101B0917201BC011B
:100FC000CD010E944904DC01CB01BC01CD0120E030
:100FD00030E040E051E40E941F02DC01CB019C01A3
:100FE000AD0160E074E284E799E40E941903DC013A
:100FF000CB01BC01CD0120E030E040E05FE30E9486
:10100000C101DC01CB0189839A83AB83BC8341C0DE
:101010008D8180648D8380916F0190917001A0918A
:101020007101B0917201BC01CD010E9449049B0184
:10103000AC01CA01B9010E94F201DC01CB019C01A3
:10104000AD0160E074E284E799E40E941903DC01D9
:10105000CB01BC01CD0120E030E040E05FE30E9425
:10106000C101DC01CB0189839A83AB83BC8380916E
:101070006E01282F30E0398B288B88899989009759
:1010800041F0E889F989E130F10519F48D81816039
:101090008D8380916A01282F30E03F872E878E85CF
:1010A0009F85009741F0EE85FF85E130F10519F449
:1010B0008F8181608F8380916B01282F30E03D8785
:1010C0002C878C859D858330910569F1EC85FD85A4
:1010D000E430F1055CF42C853D8521303105D9F0F3
:1010E0008C859D8582309105D4F430C0EC85FD85DA
:1010F000E530F10501F12C853D8525303105BCF049
:101100008C859D8586309105D1F0EC85FD85E73095
:10111000F105C9F01BC08E8180688E8317C08E8157
:1011200080648E8313C08E8180628E830FC08E8117
:10113000806C8E830BC08E81806A8E8307C08E8107
:1011400080668E8303C08E81806E8E8380916C0159
:10115000282F30E03B872A878A859B85823091053E
:10116000F9F0EA85FB85E330F1055CF42A853B85DF
:101170002115310519F18A859B858130910561F032
:101180001DC0EA85FB85E330F10571F02A853B85BA
:101190002430310569F012C08D8182608D830EC0CC
:1011A0008D8184608D830AC08D8186608D8306C0A9
:1011B0008D8186608D838E8184608E8380916D01A8
:1011C000E82FF0E0F987E887288539852230310556
:1011D00019F1888599858330910554F4E885F9855E
:1011E000309749F1288539852130310589F023C0B0
:1011F0008885998584309105B9F0E885F985E430D2
:10120000F10574F0288539852530310589F013C042
:101210008D8188608D830FC08D8180628D830BC02E
:101220008D8188628D8307C08D8180638D8303C02B
:101230008D8188638D83EBE2F0E08F818083E0E431
:10124000F0E08D818083EAE2F0E08E81808300E42B
:1012500010E069817A818B819C810E944900DC01C8
:10126000CB01892F9927F801808309E210E0698179
:101270007A818B819C810E944900DC01CB01F801BD
:10128000808365960FB6F894DEBF0FBECDBFCF91B9
:10129000DF911F910F910895DF93CF9300D0CDB7C9
:1012A000DEB79A838983EBE2F0E08081882F90E0BB
:1012B000807290700097B9F380916C01843079F45A
:1012C000AAE2B0E0EAE2F0E08081282F2E7F898157
:1012D0009A8180709170892F9927822B8C93ECE2F0
:1012E000F0E0898180830F900F90CF91DF91089576
:1012F000DF93CF9300D0CDB7DEB79A838983EBE23B
:10130000F0E08081882F90E0807290700097B9F0B3
:1013100080916C01843079F4AAE2B0E0EAE2F0E076
:101320008081282F2E7F89819A8180709170892FEA
:101330009927822B8C93ECE2F0E0898180830F90D7
:101340000F90CF91DF910895DF93CF9300D0CDB769
:10135000DEB71A821982EBE2F0E080818823DCF7A5
:10136000EBE2F0E08081882F90E08C719070009724
:10137000E9F0EBE2F0E08081882F90E080719070DE
:10138000009721F083E08093730110C0EBE2F0E05E
:101390008081882F90E088709070009721F082E023
:1013A0008093730103C081E08093730180916C018D
:1013B000843049F4EAE2F0E08081882F90E0807088
:1013C00091709A838983ECE2F0E08081282F30E0ED
:1013D00089819A81822B932B9A83898389819A812F
:1013E0000F900F90CF91DF910895DF93CF9300D0AE
:1013F000CDB7DEB71A821982EBE2F0E08081882354
:101400000CF03EC0EBE2F0E08081882F90E08C7120
:1014100090700097E9F0EBE2F0E08081882F90E097
:1014200080719070009721F083E08093730110C069
:10143000EBE2F0E08081882F90E088709070009758
:1014400021F082E08093730103C081E080937301F7
:1014500080916C01843049F4EAE2F0E08081882FC9
:1014600090E0807091709A838983ECE2F0E0808153
:10147000282F30E089819A81822B932B9A8389834C
:1014800089819A810F900F90CF91DF910895DF931A
:10149000CF93CDB7DEB7EDE2F0E080E48083A7E341
:1014A000B0E0E7E3F0E080818F7E8C93A7E3B0E0CB
:1014B000E7E3F0E080818F7D8C93A7E3B0E0E7E382
:1014C000F0E0808180648C93A7E3B0E0E7E3F0E094
:1014D00080818F778C93CF91DF910895DF93CF93A5
:1014E0000F92CDB7DEB78983EFE2F0E08981808388
:1014F000EEE2F0E080818823DCF70F90CF91DF915E
:101500000895DF93CF930F92CDB7DEB71982EFE244
:10151000F0E089818083EEE2F0E080818823DCF7CF
:10152000EFE2F0E080810F90CF91DF910895DF939B
:10153000CF930F92CDB7DEB78983EFE2F0E08981D8
:101540008083EEE2F0E080818823DCF7EFE2F0E0D8
:1015500080810F90CF91DF910895DF93CF93CDB726
:10156000DEB727970FB6F894DEBF0FBECDBF8983D5
:101570006A834B838B81813009F06FC08981282F6A
:1015800030E03F832E838E819F818130910549F128
:101590002E813F81223031052CF48E819F8100976E
:1015A00061F0D2C02E813F812230310571F18E81F0
:1015B0009F8183309105E9F1C7C0AAE3B0E0EAE377
:1015C000F0E08081482F8A81282F30E081E090E090
:1015D000022E02C0880F991F0A94E2F7842B8C9385
:1015E000B3C0A7E3B0E0E7E3F0E08081482F8A8151
:1015F000282F30E081E090E0022E02C0880F991F72
:101600000A94E2F7842B8C939FC0A4E3B0E0E4E358
:10161000F0E08081482F8A81282F30E081E090E03F
:10162000022E02C0880F991F0A94E2F7842B8C9334
:101630008BC0A1E3B0E0E1E3F0E08081482F8A8134
:10164000282F30E081E090E0022E02C0880F991F21
:101650000A94E2F7842B8C9377C08B81882309F05E
:1016600073C08981282F30E03D832C838C819D813C
:101670008130910559F12C813D81223031052CF4C6
:101680008C819D81009769F05FC02C813D81223063
:10169000310589F18C819D818330910509F440C029
:1016A00053C0AAE3B0E0EAE3F0E08081482F8A81EA
:1016B000282F30E081E090E0022E02C0880F991FB1
:1016C0000A94E2F7809584238C933EC0A7E3B0E0B0
:1016D000E7E3F0E08081482F8A81282F30E081E025
:1016E00090E0022E02C0880F991F0A94E2F78095BD
:1016F00084238C9329C0A4E3B0E0E4E3F0E080818C
:10170000482F8A81282F30E081E090E0022E02C02D
:10171000880F991F0A94E2F7809584238C9314C054
:10172000A1E3B0E0E1E3F0E08081482F8A81282F37
:1017300030E081E090E0022E02C0880F991F0A94E9
:10174000E2F7809584238C9327960FB6F894DEBF3A
:101750000FBECDBFCF91DF910895DF93CF9300D01F
:1017600000D000D0CDB7DEB789836A838A8181300B
:1017700099F58981282F30E03E832D838D819E81CC
:1017800081309105D1F02D813E81223031052CF43C
:101790008D819E81009761F050C02D813E81223065
:1017A000310581F08D819E818330910581F045C0A6
:1017B000EAE3F0E08FEF808340C0E7E3F0E08FEFF3
:1017C00080833BC0E4E3F0E08FEF808336C0E1E349
:1017D000F0E08FEF808331C08A81882371F58981A1
:1017E000282F30E03C832B838B819C8181309105B5
:1017F000C9F02B813C81223031052CF48B819C81F6
:10180000009761F01AC02B813C812230310571F0C4
:101810008B819C818330910569F00FC0EAE3F0E091
:1018200010820BC0E7E3F0E0108207C0E4E3F0E0D1
:10183000108203C0E1E3F0E0108226960FB6F89420
:10184000DEBF0FBECDBFCF91DF910895DF93CF9361
:10185000CDB7DEB727970FB6F894DEBF0FBECDBF6A
:1018600089836A834B838B81813009F06FC08981C2
:10187000282F30E03F832E838E819F818130910518
:1018800049F12E813F81223031052CF48E819F81D8
:10189000009761F0D2C02E813F812230310571F175
:1018A0008E819F8183309105E9F1C7C0ABE3B0E041
:1018B000EBE3F0E08081482F8A81282F30E081E03F
:1018C00090E0022E02C0880F991F0A94E2F7842B41
:1018D0008C93B3C0A8E3B0E0E8E3F0E08081482F48
:1018E0008A81282F30E081E090E0022E02C0880F2C
:1018F000991F0A94E2F7842B8C939FC0A5E3B0E074
:10190000E5E3F0E08081482F8A81282F30E081E0F4
:1019100090E0022E02C0880F991F0A94E2F7842BF0
:101920008C938BC0A2E3B0E0E2E3F0E08081482F2B
:101930008A81282F30E081E090E0022E02C0880FDB
:10194000991F0A94E2F7842B8C9377C08B818823AC
:1019500009F073C08981282F30E03D832C838C816E
:101960009D818130910559F12C813D8122303105D5
:101970002CF48C819D81009769F05FC02C813D81A2
:101980002230310589F18C819D818330910509F4E4
:1019900040C053C0ABE3B0E0EBE3F0E08081482F00
:1019A0008A81282F30E081E090E0022E02C0880F6B
:1019B000991F0A94E2F7809584238C933EC0ABE391
:1019C000B0E0EBE3F0E08081482F8A81282F30E0FF
:1019D00081E090E0022E02C0880F991F0A94E2F77E
:1019E000809584238C9329C0ABE3B0E0EBE3F0E077
:1019F0008081482F8A81282F30E081E090E0022EFC
:101A000002C0880F991F0A94E2F7809584238C9373
:101A100014C0ABE3B0E0EBE3F0E08081482F8A81B3
:101A2000282F30E081E090E0022E02C0880F991F3D
:101A30000A94E2F7809584238C9327960FB6F89446
:101A4000DEBF0FBECDBFCF91DF910895DF93CF935F
:101A500000D000D000D0CDB7DEB789836A838A81F9
:101A6000813099F58981282F30E03E832D838D8147
:101A70009E8181309105D1F02D813E81223031054A
:101A80002CF48D819E81009761F050C02D813E81A4
:101A90002230310581F08D819E818330910581F066
:101AA00045C0EBE3F0E08FEF808340C0E8E3F0E077
:101AB0008FEF80833BC0E5E3F0E08FEF808336C09B
:101AC000E2E3F0E08FEF808331C08A81813071F5ED
:101AD0008981282F30E03C832B838B819C8181304E
:101AE0009105C9F02B813C81223031052CF48B818A
:101AF0009C81009761F01AC02B813C812230310516
:101B000071F08B819C818330910569F00FC0EBE30C
:101B1000F0E010820BC0E8E3F0E0108207C0E5E3DC
:101B2000F0E0108203C0E2E3F0E0108226960FB6E8
:101B3000F894DEBF0FBECDBFCF91DF910895DF9344
:101B4000CF9300D000D0CDB7DEB789836A83898177
:101B5000282F30E03C832B838B819C818130910541
:101B600059F12B813C81223031052CF48B819C81F1
:101B7000009769F05FC02B813C812230310589F1EB
:101B80008B819C818330910509F440C053C0ABE345
:101B9000B0E0EBE3F0E08081482F8A81282F30E02D
:101BA00081E090E0022E02C0880F991F0A94E2F7AC
:101BB000809584238C933EC0A8E3B0E0E8E3F0E096
:101BC0008081482F8A81282F30E081E090E0022E2A
:101BD00002C0880F991F0A94E2F7809584238C93A2
:101BE00029C0A5E3B0E0E5E3F0E08081482F8A81D9
:101BF000282F30E081E090E0022E02C0880F991F6C
:101C00000A94E2F7809584238C9314C0A2E3B0E099
:101C1000E2E3F0E08081482F8A81282F30E081E0E4
:101C200090E0022E02C0880F991F0A94E2F7809577
:101C300084238C930F900F900F900F90CF91DF9192
:101C40000895DF93CF9300D00F92CDB7DEB789838D
:101C50008981282F30E03B832A838A819B818130D0
:101C60009105C9F02A813B81223031052CF48A810B
:101C70009B81009761F01AC02A813B812230310597
:101C800071F08A819B818330910569F00FC0EBE38D
:101C9000F0E010820BC0E8E3F0E0108207C0E5E35B
:101CA000F0E0108203C0E2E3F0E010820F900F90AA
:101CB0000F90CF91DF910895DF93CF9300D000D0A4
:101CC000CDB7DEB789836A838981282F30E03C83D2
:101CD0002B838B819C818130910549F12B813C8143
:101CE000223031052CF48B819C81009761F05AC021
:101CF0002B813C812230310571F18B819C818330B5
:101D00009105E9F14FC0ABE3B0E0EBE3F0E0808197
:101D1000482F8A81282F30E081E090E0022E02C017
:101D2000880F991F0A94E2F784278C933BC0A8E39D
:101D3000B0E0E8E3F0E08081482F8A81282F30E08E
:101D400081E090E0022E02C0880F991F0A94E2F70A
:101D500084278C9327C0A5E3B0E0E5E3F0E0808121
:101D6000482F8A81282F30E081E090E0022E02C0C7
:101D7000880F991F0A94E2F784278C9313C0A2E37B
:101D8000B0E0E2E3F0E08081482F8A81282F30E044
:101D900081E090E0022E02C0880F991F0A94E2F7BA
:101DA00084278C930F900F900F900F90CF91DF911D
:101DB0000895DF93CF9300D000D00F92CDB7DEB758
:101DC0008A836B8319828A81282F30E03D832C839C
:101DD0004C815D814130510541F18C819D81823082
:101DE000910534F42C813D812115310561F052C0FB
:101DF0004C815D814230510551F18C819D81833050
:101E00009105B9F147C0E9E3F0E08081282F30E087
:101E10008B81882F90E0A90102C0559547958A953E
:101E2000E2F7CA018170898335C0E6E3F0E0808182
:101E3000282F30E08B81882F90E0A90102C05595B2
:101E400047958A95E2F7CA018170898323C0E3E34D
:101E5000F0E08081282F30E08B81882F90E0A9016D
:101E600002C0559547958A95E2F7CA01817089832A
:101E700011C0E0E3F0E08081282F30E08B81882FD3
:101E800090E0A90102C0559547958A95E2F7CA01ED
:101E90008170898389810F900F900F900F900F9020
:101EA000CF91DF910895DF93CF9300D000D0CDB7CD
:101EB000DEB78A8319828A81282F30E03C832B8306
:101EC0008B819C8181309105D1F02B813C81223026
:101ED00031052CF48B819C81009761F01EC02B8111
:101EE0003C812230310581F08B819C8183309105CA
:101EF00081F013C0E9E3F0E0808189830EC0E6E35E
:101F0000F0E08081898309C0E3E3F0E08081898388
:101F100004C0E0E3F0E08081898389810F900F9015
:101F20000F900F90CF91DF910895DF93CF930F9291
:101F3000CDB7DEB783E08093680180E895E2A0E04A
:101F4000B0E080936F0190937001A0937101B09302
:101F5000720181E08093690110926D0183E08093AA
:101F60006C0110926A0110926B010E9450070E944E
:101F7000470A82E062E041E00E94AD0A19820E94B5
:101F8000810A89838981882F90E00E944C09898188
:101F90008E3629F482E062E041E00E94260C8981BD
:101FA000863661F782E062E00E949F0DE7CF2F92B4
:101FB0003F924F925F926F927F928F929F92AF92D9
:101FC000BF92CF92DF92EF92FF920F931F93CF9326
:101FD000DF93CDB7DEB7CA1BDB0B0FB6F894DEBFBD
:101FE0000FBECDBF09942A88398848885F846E84E3
:101FF0007D848C849B84AA84B984C884DF80EE802D
:10200000FD800C811B81AA81B981CE0FD11D0FB635
:10201000F894DEBF0FBECDBFED010895F894FFCF59
:10202000000000000000000000010202030303039F
:102030000404040404040404050505050505050558
:102040000505050505050505060606060606060638
:102050000606060606060606060606060606060620
:102060000606060606060606070707070707070708
:1020700007070707070707070707070707070707F0
:1020800007070707070707070707070707070707E0
:1020900007070707070707070707070707070707D0
:1020A00007070707070707070808080808080808B8
:1020B00008080808080808080808080808080808A0
:1020C0000808080808080808080808080808080890
:1020D0000808080808080808080808080808080880
:1020E0000808080808080808080808080808080870
:1020F0000808080808080808080808080808080860
:10210000080808080808080808080808080808084F
:10211000080808080808080808080808080808083F
:08212000080808080808080877
:00000001FF
